:1070000055C000008FC000008DC000008BC0000084
:1070100089C0000087C0000085C0000083C0000058
:1070200081C000007FC00000C7C000007BC000001E
:1070300079C0000077C0000075C0000073C0000078
:1070400071C000006FC000006DC000006BC0000088
:10705000EBC2000067C0000065C0000063C0000014
:1070600061C000005FC000005DC000005BC00000A8
:1070700059C0000057C0000055C0000053C00000B8
:1070800051C000004FC000004DC000004BC00000C8
:1070900049C0000047C0000045C0000043C00000D8
:1070A00041C000003FC000003DC0000011241FBED1
:1070B000CFEFDAE0DEBFCDBF729A8FE39CE9019794
:1070C000F1F700C000004CB120E030E0F9018591FB
:1070D000949142FF12C0019681F084B7877F84BFEC
:1070E0000FB6F894A8958091600088618093600045
:1070F000109260000FBEF901099511E0A0E0B1E027
:10710000E8E6FEE702C005900D92AE37B107D9F769
:1071100021E0AEE7B1E001C01D92AB39B207E1F763
:1071200091D2A0C66DCF8091920187FF0FC0809150
:10713000E80082FD04C08EB38111F9CF10C08091A8
:10714000E8008B7F0AC08EB3882349F08091E80065
:1071500080FFF9CF8091E8008E7F8093E80008954A
:10716000EAE8F1E03581248193818281909388015E
:1071700080938901C90190938601809387010895C6
:107180008823C9F09091F3002091F20030E0392B70
:10719000232B69F49091E8009B7F9093E8009091F5
:1071A000E80092FD06C09EB39111F9CF04C0909102
:1071B000F1008150E5CF08951F920F920FB60F9204
:1071C00011248F938091DA0080FF19C08091D8003C
:1071D00080FF15C08091DA008E7F8093DA00809165
:1071E000D90080FF0AC080E189BD82E189BD09B470
:1071F00000FEFDCF81E08EBB02C019BC1EBA80919B
:10720000E10080FF16C08091E20080FF12C08091F3
:10721000E2008E7F8093E2008091E20080618093A3
:10722000E2008091D80080628093D80019BC85E08C
:107230008EBB8091E10084FF2DC08091E20084FF2D
:1072400029C080E189BD82E189BD09B400FEFDCF7E
:107250008091D8008F7D8093D8008091E1008F7E4F
:107260008093E1008091E2008F7E8093E200809124
:10727000E20081608093E20080919A01882311F0FE
:1072800084E007C08091E30087FD02C081E001C077
:1072900083E08EBB8091E10083FF2AC08091E200F1
:1072A00083FF26C08091E100877F8093E10082E028
:1072B0008EBB10929A018091E1008E7F8093E10055
:1072C0008091E2008E7F8093E2008091E2008061F5
:1072D0008093E2008091EB0081608093EB0010923C
:1072E000ED001092EC0082E28093ED008091EE00C0
:1072F0008F910F900FBE0F901F9018959FB7F89425
:1073000007B600FCFDCFF999FECF809529E0E1E0BA
:10731000F0E0082E20935700E8959FBF0895E1E024
:10732000F0E089E0809357008491089529E0FC0102
:10733000209357008491089521E2FC012093570087
:107340008491089507B600FCFDCFF999FECF21E0A6
:10735000FB010A0120935700E895112408950F932B
:107360001F93611520E772078105910570F441E0D4
:107370008B019C010F77112722273327012B022B2A
:10738000032B09F040E0242F01C020E020FF14C0AF
:107390002FB7F89407B600FCFDCFF999FECF35E082
:1073A000FB0130935700E89507B600FCFDCF91E153
:1073B00090935700E8952FBF1F910F9108950F9359
:1073C0001F93611520E772078105910570F441E074
:1073D0008B019C010F77112722273327012B022BCA
:1073E000032B09F040E0242F01C020E020FF14C04F
:1073F0002FB7F89407B600FCFDCFF999FECF33E024
:10740000FB0130935700E89507B600FCFDCF91E1F2
:1074100090935700E8952FBF1F910F910895CF9239
:10742000DF92EF92FF921F93CF93DF9300D01F92D2
:10743000CDB7DEB79091850180918A019923D1F073
:10744000843049F480918B01811108C080918C01B6
:107450008F3F21F455C0853009F49DC08AE08093A8
:10746000010183E0809384018091EB00806280932E
:10747000EB00CFC0843009F443C028F4813051F0D0
:107480008330D9F0C6C0853009F485C0863009F450
:10749000ADC0BFC010918B01123008F0BAC060DEE1
:1074A000111109C0609188017091890120918301B7
:1074B000822F90E084DF85E007C080918B01982FB8
:1074C0009D7F29F44DDE89E080930101A2C08130C7
:1074D00009F09FC0E0E0F0E084918F3F59F01092F6
:1074E0008301F0938901E09388018AE08093010190
:1074F00085E08DC03196E11520E7F20769F789C074
:1075000080918B01833061F581E080938101E0916E
:107510009001F091910180918C01309761F0813060
:1075200009F077C090918F0180918E0190937F0137
:10753000809380016EC081110BC09CE088E10FB682
:10754000F894A895809360000FBE9093600061C08E
:1075500085919491019609F05CC01092000159C088
:10756000811157C080918C018F3F09F052C0C12C0E
:10757000D12C7601C701B60122DF80E8C80ED11CEC
:10758000E11CF11CC11420E7D206E104F10491F7DB
:10759000109285013EC08091020190910301A0915B
:1075A000040189839A83AB8380918C0190918B0134
:1075B000911107C0833038F5FE01E80FF11D81817C
:1075C00012C0913031F5813359F020F48033D9F471
:1075D00088E509C0803631F08136A9F487E803C018
:1075E0008EE101C085E98093820113C080918B01F7
:1075F000833079F480918C0181110BC080918D01D1
:107600008093830106C08AE08093010188E0809323
:1076100084010F900F900F90DF91CF911F91FF90F9
:10762000EF90DF90CF9008951F920F920FB60F92B8
:1076300011248F9380E48CB98F910F900FBE0F901F
:107640001F901895CF93DF9300D000D000D0CDB716
:10765000DEB784B7877F84BF0FB6F894A895809172
:107660006000886180936000109260000FBE90E01F
:1076700080E80FB6F89480936100909361000FBE8C
:1076800081E085BF92E095BF9091D8009F7E909356
:10769000D8009091D70091609093D70094E092BF6A
:1076A00080937E019091D8009E7F9093D800109295
:1076B000E2001092DA001092E1009091D8009F77DA
:1076C0009093D8009091D80090689093D8009091B2
:1076D000D8009F7D9093D80019BC1EBA10929A01D1
:1076E0009091E0009B7F9093E0009091D800916092
:1076F0009093D8009091EB0091609093EB001092E2
:10770000ED001092EC0092E29093ED009091EE006B
:107710009091E1009E7F9093E1009091E200916052
:107720009093E2009091E20098609093E200909133
:10773000E0009E7F9093E0009091D800906190933C
:10774000D8006E9A769A80936F0083E080938100D0
:10775000769A789482E0282E9091000180918101A0
:10776000992309F4C5C22EB32223D1F32091E80056
:1077700023FFF6CFE2E9F1E08091F100819321E06F
:10778000EA39F207C9F7809192018F77813209F0C7
:1077900002C230E43CB98091980190919901909394
:1077A00091018093900180919301833009F4B6C1D7
:1077B00058F48130C9F0823009F0EDC18091E800C1
:1077C000877F8093E8000FC1853009F4CDC108F4AC
:1077D000C3C1863009F0DFC18091E800877F8093C4
:1077E000E80020920101D6C18091E800877F809354
:1077F000E80080918101882319F011DE1092810147
:107800008091900190919101009769F12091E80099
:1078100022FD04C02EB32111F9CFBDC12091F1008A
:1078200020938A0101979093910180939001EBE856
:10783000F1E02091F3008091F20090E0922B892BEF
:1078400089F08091F1008193809190019091910154
:107850000197909391018093900180E991E08E17B8
:107860009F0739F7DCDD80910101853009F0B3C055
:107870008091900190919101892B19F4209201013E
:10788000AAC08AE17DDCA0908801B09089018A2D90
:107890008F7176DC20918601309187012F5F3F4FF9
:1078A0002A193B093E832D8380918B0181117FC072
:1078B000369527953E832D83650180918301E82EBF
:1078C000F12CA982DA828B83FC82312C8D819E81FE
:1078D000892B09F445C02091F3008091F20090E0DB
:1078E000922B892BD1F08D819E8101979E838D8370
:1078F0004091F1005091F100C701B60123DD3394AE
:107900004601570192E0890E911CA11CB11C750122
:10791000640120E432120EC011C08091E8008B7F18
:107920008093E8008091E80082FDDDCF8EB3811165
:10793000F9CF31C18D819E81892B41F669817A8190
:107940008B819C810CDD2D813E81232B09F4BECFE0
:10795000C501B40134DD89829A82AB82BC82B5CF85
:10796000809186019091870190938901809388018D
:1079700030C02091F3008091F20090E0922B892B8F
:10798000D9F02D813E81215031093E832D836091B4
:10799000F100809188019091890152D280918801F3
:1079A00090918901019690938901809388018D813E
:1079B0009E81892BF1F60DC08091E8008B7F80932A
:1079C000E8008091E80082FDDCCF8EB38111F9CF11
:1079D000E2C080E1D5DB8091E8008B7FD9C08EB317
:1079E000882309F4D8C08091E80080FFF8CF809107
:1079F0000101893081F08A3059F480918B01813006
:107A000039F490918801809189019093F100BBC075
:107A100080918201B8C08091880190918901209164
:107A20008601309187012F5F3F4F281B390B3E8322
:107A30002D8320918B0121113DC02D813E813695F2
:107A400027953E832D832C0180918301682E712C14
:107A50008D819E8101979E838D83019611F12091E6
:107A6000F3008091F20090E0922B809769F0F20190
:107A7000859194918093F1009093F10032E0430E50
:107A8000511C611C711CE4CF8091E8008E7F8093B3
:107A9000E8008091E80080FDEACF8EB38111F9CF34
:107AA0007AC080918601909187019093890180939B
:107AB000880131C0223079F52D813E81232B59F187
:107AC0002091F3008091F20090E0922B8097B1F02A
:107AD0008091880190918901ABD18093F1008091D0
:107AE0008801909189010196909389018093880182
:107AF0008D819E8101979E838D83DECF8091E800EA
:107B00008E7F8093E8008091E80080FDE1CF8EB306
:107B10008111F9CF40C02092010137C08091E80067
:107B2000877F8093E8008091E80080FD04C08EB3D9
:107B30008111F9CF30C0809184018093F1001092BF
:107B4000F1001092F1001092F100809101018093F8
:107B5000F1001092F10019C08091E800877F8093B6
:107B6000E8001092840116C08091E800877F80931E
:107B7000E8008091E80080FD04C08EB38111F9CF48
:107B80000AC0809101018093F1008091E8008E7F0E
:107B90008093E800C8DA8091E80083FF9AC0809162
:107BA000920190919301963009F43DC028F49923F5
:107BB00051F09530B1F08DC0983009F456C099302D
:107BC00009F465C086C08D7F803809F082C080913D
:107BD000E800877F8093E8001092F1001092F10096
:107BE0004FC0811176C0309194013F7739838091E5
:107BF000E3008078832B8093E3008091E800877F07
:107C00008093E80090DA8091E80080FFFCCF8091BB
:107C1000E30080688093E3008981811102C082E0E3
:107C200057C083E055C08058823008F052C0809120
:107C300094010091950110E00230110541F00330EC
:107C4000110551F00130110509F043C089C08BE1E5
:107C500090E0E1E5F1E097C0882309F486C0813027
:107C600009F488C08230A9F58AC0803891F58091E6
:107C7000E800877F8093E80080919A018093F1006B
:107C80008091E8008E7F8093E8004DDA22C0811158
:107C900020C0809194019091950199270297CCF48E
:107CA0008091E800877F8093E80090919401998308
:107CB00090939A0138DA2981222319F034E03EBBEF
:107CC00008C08091E30087FD02C081E001C084E02C
:107CD0008EBB8091E80083FF3FCD8091E800877FD5
:107CE0008093E8008091EB0080628093EB0032CDBE
:107CF000811139CD8FE99FE00197F1F700C00000B5
:107D00008091D8008E7F8093D8001092E20010926C
:107D1000DA001092E1008091E00081608093E00041
:107D20008091D8008F778093D80019BC8091D700BC
:107D30008E7F8093D7008091D8008F7E8093D8006B
:107D400010927E016E98769810926F0010928100CA
:107D500081E085BF15BEE0917F01F091800109951A
:107D600082E190E0ECE6F1E00EC084E090E0E5E333
:107D7000F1E009C086E190E0E9E3F1E004C08EE2C1
:107D800090E0E5E0F1E02091E800277F2093E80013
:107D900020919801309199018217930708F49C0172
:107DA00040E02115310571F18EB38823D9F185307A
:107DB000C9F18091E80083FD35C08091E80082FD23
:107DC0002DC08091E80080FFECCF4091F3008091BE
:107DD000F20090E0942B2115310551F0803291058D
:107DE00038F441914093F100215031090196F3CFCD
:107DF00041E0809709F040E08091E8008E7F809319
:107E0000E800CFCF4111D0CF09C08EB3882351F005
:107E1000853041F08091E80083FD04C08091E80046
:107E200082FFF3CF8091E8008B7F8093E80051CFF1
:107E3000F999FECF92BD81BDF89A992780B5089532
:107E4000262FF999FECF92BD81BDF89A019700B413
:107E5000021639F01FBA20BD0FB6F894FA9AF99AB3
:087E60000FBE0895F894FFCF56
:107E6800010220DCFB2E03490042004D0020004D9A
:107E7800006F00640065006C0020004D0020004287
:107E8800006F006F0074006C006F00610064006593
:107E980000720000000403090416034D0053006338
:107EA800006800770069006E00670065006E0000DA
:107EB8000009021B0001010080320904000000FED5
:107EC8000102000921030000000C10011201100139
:0E7ED80000000020EB03F42F00000102000167
:107FA0000ECADDC9CFC9C8C9C1C9B9C9A7C9089511
:087FB000089508950895089555
:107FE000DFCFDFCFDFCFDFCFDFCFDFCFDFCFDFCF21
:087FF000DFCFDFCFDFCFDFCFD1
:087FF8000070000010DFFBDC4B
:040000030000700089
:00000001FF
